:080319000608010204030705B8
:1001CC008E108F11E4F5B0F5908511A07FDCFE1236
:1001DC000304E5A033333354F8F5A0120300E5A073
:1001EC0033333354F8F5A0E5115401F5B012030084
:1001FC00E4F5A0F590E51125E0FFE510338FB01282
:10020C000300E5B033333354F8F5B0120300E5B016
:10021C0033333354F8F5B0E510C313E51113120260
:10022C00FEE4F5B0F5A0E511AE107802C333CE3381
:10023C00CED8F91202FE1202F7E59033333354F89C
:09024C00F5907FDC7E0002030442
:0402BB00AD0FAC0EC9
:1002BF00AB07AF05AE04E4F5A0F5B0F590BB010BAD
:1002CF0075A04975B092759024801ABB020B75A06A
:1002DF009275B024759049800CBB040975A02475E4
:0802EF00B0497590920203046E
:04025500AD0FAC0E2F
:060259008F108C118D12C4
:10025F00E4F513E510B4010B75A04975B0927590D4
:10026F0024801EE510B4020B75A09275B024759012
:10027F0049800EE510B4040975A02475B049759036
:10028F0092E5137004F5B08012E513B40105E4F59F
:10029F00908008E513B40203E4F5A0AF12AE11127B
:0B02AF0003040513E513C3940340A8EB
:0102BA002221
:100003008E108F11E4F5B0F5908511A07FDCFE1200
:100013000304E5A033333354F8F5A0120300C3E51A
:10002300119404E5109400500BE5A033333354F8D6
:10003300F5A08006E4F5A075B001120300E4F5A075
:10004300F590E51125E0FFE510338FB0120300E5CD
:10005300B033333354F8F5B0120300E511640145AE
:1000630010700BE5B033333354F8F5B08016C3E5A5
:10007300119402E5109400400BE4F5B0E51013E58C
:100083001113F590120300E4F5B0F5A0E511AE10DD
:100093007802C333CE33CED8F91202FE1202F7E54B
:0F00A3009033333354F8F5907FDC7E0002030472
:1000B2007F017E001200037F027E001200037F0494
:1000C2007E001200037F037E001201CC7F077E00B8
:1000D2001201CC7F057E001201CC750E0F750FA0A8
:1000E200D3E50F94F4E50E940140217F011202BB87
:1000F2007F021202BBAD0FAC0E7F041202BF740C62
:10010200250FF50F74FE350EF50E80D4750E0B75A6
:100112000FB8D3E50F9400E50E940040937F0112CF
:1001220002557F02120255AD0FAC0E7F0412025926
:0E0132007418250FF50F74FC350EF50E80D4F1
:0D02F700E59033333354F8F5907FDC7E0042
:10030400D3EF9400EE9400400B7D6EDDFEEF1F7082
:04031400EF1E80EC6C
:0103180022C2
:03000000020140BA
:0C014000787FE4F6D8FD7581130201877A
:10014C000200B2E493A3F8E493A34003F68001F217
:10015C0008DFF48029E493A3F85407240CC8C333B4
:10016C00C4540F4420C8834004F456800146F6DF83
:10017C00E4800B0102040810204080900319E47EF7
:10018C00019360BCA3FF543F30E509541FFEE49378
:10019C00A360010ECF54C025E060A840B8E493A33F
:1001AC00FAE493A3F8E493A3C8C582C8CAC583CA6A
:1001BC00F0A3C8C582C8CAC583CADFE9DEE780BE22
:0103210000DB
:00000001FF
