:0B000E003F065B4F666D7D077F6F4073
:0D0B9B000223000002210000C18001410181
:03002B00020BA91C
:050BA900B2A1C2CF3231
:03001B000209E8EF
:1009E800C0E0C0F0C083C082C0D075D000C000C0D5
:1009F80001C002C003C004C005C006C007D3E52477
:100A08009400E52394004012E52415247002152370
:100A1800758DD8758BF0C28F8009C28EC28FD2AB0C
:100A2800120003D007D006D005D004D003D002D0DE
:0E0A380001D000D0D0D082D083D0F0D0E032F8
:03000B00020ACE18
:100ACE00C0E0C0D0B2A50522E52270020521D39464
:100ADE0019E521648094804019752100752200B2B9
:100AEE0000E541942040057541018006E54125E071
:070AFE00F541D0D0D0E03239
:1008BD00AB07AA06EA3395E0F9F8E47F607EEAFD1E
:1008CD00FC120A8A8E2D8F2EE52E7802C333CE337D
:1008DD00CED8F9F5478E46E52E25E0F543E52D33C7
:1008ED00F542E52DC313F539E52E13F53AE52EAE98
:1008FD002D7802CEC313CE13D8F9F53C8E3BE52EE1
:10090D00AE2D7803CEC313CE13D8F9F5348E33E55F
:10091D002DC4F854F0C868F52FE52EC4540F48F5D2
:10092D0030AE46AF477C007D061203EF8E2B8F2C29
:10093D00AE46AF477C007D0C1203EF8E3F8F40AE6D
:0F094D0046AF477C007D181203EF8E278F2822BC
:100B8A008FCB8DCA8FCD8DCCC2CFD2CAD2ADD2AFC8
:010B9A002238
:07000300C2CAC2CFD2A12244
:100B32008E098F0AD3E50A9400E5099400400F7FDD
:0F0B420064120B77E50A150A70EA150980E6229E
:080B05007F22AD3AAC397EFEFF
:100B0D008C098D0AAB07AA06EB4A6007EAFFAD0315
:100B1D00120B8AAE09AF0A7C007D641203DD8E23B1
:050B2D008F24020B649F
:100628007F8C7E001208BDAD2EAC2D7F227EFE127F
:100638000B0D7F9A120B07AD3AAC397F857EFE12FF
:100648000B0DAD3AAC397F567EFE120B0D120B0521
:10065800AD2EAC2D7FC87EFD120B0DAD3AAC397FA7
:10066800C87EFD120B0D120B05AD3AAC397F9A7E90
:10067800FE120B0DAD3AAC397F857EFE120B0DAD27
:100688003AAC397F567EFE120B0DAD3AAC397F6E0F
:100698007EFE120B0DAD2EAC2D7F857EFE120B0D4E
:1006A800AD3AAC397F857EFE120B0DAD3AAC397F81
:1006B800857EFE120B0DAD3AAC397F857EFE120B9E
:1006C8000D120B05AD3AAC397F567EFE120B0D129A
:1006D8000B05AD3AAC397F857EFE120B0D120B056A
:1006E800AD3AAC397F567EFE120B0D120B05AD3AB2
:1006F800AC397FC87EFD120B0D120B05AD3AAC3933
:100708007F827EFD120B0DAD3AAC397FE87EFD127B
:100718000B0DAD3AAC397FC87EFD120B0DAD3AAC6E
:10072800397F347EFD120B0DAD47AC46E4FFFE0267
:020738000B0DA7
:10025A007FC87E001208BDAD2EAC2D7FA67EFD1292
:10026A000B0DAD2EAC2D7F7A7EFC120B0DAD3AAC88
:10027A0039E4FFFE120B0DAD2EAC2D7F3D7EFE1232
:10028A000B0DAD3AAC397FE87EFD120B0DAD2EACED
:10029A002D7FA67EFD120B0DAD2EAC2D7F7A7EFC36
:1002AA00120B0DAD3AAC39E4FFFE120B0DAD2EACBC
:1002BA002D7FA67EFD120B0DAD3AAC397F5C7EFD1B
:1002CA00120B0DAD3AAC397F347EFD120B0DAD3AEF
:1002DA00AC397F347EFD120B0DAD3AAC397F5C7EB2
:1002EA00FD120B0DAD3AAC397FA67EFD120B0DAD9A
:1002FA002EAC2D7F7A7EFC120B0DAD2EAC2D7FDC41
:10030A007EFC120B0DAD43AC427F347EFD120B0D09
:10031A00AD43AC42E4FFFE120B0DAD2EAC2D7FA611
:10032A007EFD120B0DAD2EAC2D7F7A7EFC120B0DCD
:10033A00AD3AAC39E4FFFE120B0DAD2EAC2D7F3D6C
:10034A007EFE120B0DAD3AAC397FE87EFD120B0D25
:10035A00AD2EAC2D7FA67EFD120B0DAD2EAC2D7FE2
:10036A007A7EFC120B0DAD3AAC39E4FFFE120B0D8E
:10037A00AD2EAC2D7FA67EFD120B0DAD3AAC397FAA
:10038A005C7EFD120B0DAD3AAC397F347EFD120B4B
:10039A000DAD3AAC397F347EFD120B0DAD3AAC3956
:1003AA007F5C7EFD120B0DAD3AAC397FA67EFD1245
:1003BA000B0DAD2EAC2D7F7A7EFC120B0DAD2EAC43
:1003CA002D7FDC7EFC120B0DAD43AC427F7A7EFCA6
:0303DA00020B0D06
:10002E007F327E001208BDAD34AC33E4FFFE120BFE
:10003E000DAD34AC337F3D7EFE120B0DAD3CAC3BB3
:10004E007FAE7EFE120B0DAD34AC337FF47EFE120E
:10005E000B0DAD3CAC3B7FAE7EFE120B0DAD34AC4A
:10006E00337F3D7EFE120B0DAD3CAC3B7F227EFE00
:10007E00120B0DAD3AAC397FD37EFE120B0DAD34A3
:10008E00AC337FAE7EFE120B0DAD3CAC3B7F9A7E49
:10009E00FE120B0DAD34AC337FD37EFE120B0DADC5
:1000AE003CAC3B7F9A7EFE120B0DAD34AC337F3DE4
:1000BE007EFE120B0DAD3CAC3B7FE87EFD120B0DB0
:1000CE00AD3AAC397FAE7EFE120B0DAD34AC337F44
:1000DE003D7EFE120B0DAD3CAC3B7FAE7EFE120B99
:1000EE000DAD34AC337FF47EFE120B0DAD3CAC3B4C
:1000FE007FAE7EFE120B0DAD34AC337F3D7EFE1215
:10010E000B0DAD3CAC3B7F227EFE120B0DAD3AAC1F
:10011E00397FD37EFE120B0DAD34AC337FAE7EFE37
:10012E00120B0DAD3CAC3B7F9A7EFE120B0DAD3427
:10013E00AC337F3D7EFE120B0DAD3CAC3B7F6E7E35
:10014E00FE120B0DAD34AC337F9A7EFE120B0DAD4D
:10015E002EAC2D7FAE7EFE120B0DAD34AC337F3D3B
:10016E007EFE120B0DAD34AC337F6E7EFE120B0D88
:10017E00AD34AC337F9A7EFE120B0DAD2EAC2D7FBF
:10018E00AE7EFE120B0DAD34AC337F3D7EFE120BF8
:10019E000DAD34AC337F6E7EFE120B0DAD34AC3331
:1001AE007FC17EFE120B0DAD2EAC2D7FD37EFE12C7
:1001BE000B0DAD34AC337F6E7EFE120B0DAD34AC39
:1001CE00337F9A7EFE120B0DAD34AC337FC17EFEB3
:1001DE00120B0DAD3CAC3B7FD37EFE120B0DAD3A38
:1001EE00AC397FD37EFE120B0DAD34AC337F6E7EF9
:1001FE00FE120B0DAD34AC337F9A7EFE120B0DAD9D
:10020E0034AC337FC17EFE120B0DAD3CAC3B7FD3C5
:10021E007EFE120B0DAD3AAC397FD37EFE120B0D66
:10022E00AD34AC337F3D7EFE120B0DAD34AC337F5F
:10023E006E7EFE120B0DAD34AC337F9A7EFE120B2A
:0C024E000DAD34AC337FAE7EFE020B0D14
:100512007FA07E001208BDAD3AAC397FDC7EFC12B2
:100522000B0DAD3AAC397F0A7EFD120B0DAD43AC1B
:1005320042E4FFFE120B0DAD3AAC397F5C7EFD1238
:100542000B0DAD3AAC397F827EFD120B0DAD43AC83
:1005520042E4FFFE120B0DAD3AAC397FDC7EFC1299
:100562000B0DAD3AAC397F0A7EFD120B0DAD3CACE2
:100572003BE4FFFE120B0DAD3AAC397F5C7EFD12FF
:100582000B0DAD3AAC397F827EFD120B0DAD3CAC4A
:100592003BE4FFFE120B0D120B05AD3AAC397F06A0
:1005A2007EFE120B0DAD3CAC3BE4FFFE120B0DAD1B
:1005B2003AAC397FDC7EFC120B0DAD3AAC397F0AC6
:1005C2007EFD120B0DAD3CAC3BE4FFFE120B0DADFC
:1005D2003AAC397F067EFE120B0DAD43AC427FE88A
:1005E2007EFD120B0DAD43AC42E4FFFE120B0DADCE
:1005F2003CAC3B7FC87EFD120B0DAD3CAC3B7F8219
:100602007EFD120B0DAD3CAC3B7F0A7EFD120B0D45
:10061200AD3CAC3B7FAD7EFC120B0DAD43AC427FDB
:060622000A7EFD020B0D33
:10073A007FF07E001208BDAD2EAC2D7F857EFE12A5
:10074A000B0DAD2EAC2D7F6E7EFE120B0DAD2EACB9
:10075A002D7F857EFE120B0DAD2EAC2D7F6E7EFE9B
:10076A00120B0DAD2EAC2D7F857EFE120B0DAD2E1C
:10077A00AC2D7F067EFE120B0DAD2EAC2D7F567E64
:10078A00FE120B0DAD2EAC2D7F227EFE120B0DAD8F
:10079A0043AC427FC87EFD120B0DAD2EAC2D7F44BB
:1007AA007EFC120B0DAD2EAC2D7F857EFE120B0D3D
:1007BA00AD2EAC2D7FE47EFE120B0DAD43AC427F15
:1007CA00037EFF120B0DAD2EAC2D7F0A7EFD120BA0
:1007DA000DAD2EAC2D7FC87EFD120B0DAD2EAC2DAE
:1007EA007F067EFE120B0DAD43AC427F227EFE02D7
:0207FA000B0DE5
:1007FC007FF07E001208BDAD2EAC2D7F7A7EFC12F0
:10080C000B0DAD2EAC2D7FDC7EFC120B0DAD2EAC8A
:10081C002D7F347EFD120B0DAD2EAC2D7F5C7EFD3D
:10082C00120B0DAD2EAC2D7FA67EFD120B0DAD2E39
:10083C00AC2D7FE87EFD120B0DAD2EAC2D7F227EF4
:10084C00FE120B0DAD2EAC2D7F3D7EFE120B0DADB1
:10085C0047AC46E4FFFE120B0DAD2EAC2D7F3D7E5A
:10086C00FE120B0DAD2EAC2D7F227EFE120B0DADAC
:10087C002EAC2D7FE87EFD120B0DAD2EAC2D7FA680
:10088C007EFD120B0DAD2EAC2D7F5C7EFD120B0D83
:10089C00AD2EAC2D7F347EFD120B0DAD2EAC2D7F0D
:1008AC00DC7EFC120B0DAD2EAC2D7F7A7EFC020B88
:0108BC000D2E
:100B51005389F0438901758CD8758AF0D28CD2A95A
:030B6100D2AF22EE
:100B64005389F0438901758DD8758BF0D28ED2AB41
:030B7400D2AF22DB
:100A4600E4F508120B5175803F7590FF20B5257FA0
:100A56000A7E00120B3220B51BAF080508EF900086
:100A66000E93F580E508D394094003E4F50875A0D4
:100A7600EF12051230000575A0DF800375A0BF8553
:040A8600418080C863
:0B001E000000000000000000DFF622E0
:100B7700758901758DD8758BF0D28E308FFDC28E39
:030B8700C28F22F8
:0300000002095C96
:0C095C00787FE4F6D8FD75814D0209A3F8
:1003DD00EF8DF0A4A8F0CF8CF0A428CE8DF0A42E34
:0203ED00FE22EE
:1003EF00BC000BBE0029EF8DF084FFADF022E4CCF2
:1003FF00F875F008EF2FFFEE33FEEC33FCEE9DECBB
:10040F00984005FCEE9DFE0FD5F0E9E4CEFD22ED00
:10041F00F8F5F0EE8420D21CFEADF075F008EF2F4A
:10042F00FFED33FD4007985006D5F0F222C398FD3B
:05043F000FD5F0EA22D8
:100A8A00C2D5E830E70FB2D5E4C39BFBE49AFAE497
:100A9A0099F9E498F8EC30E717B2D5120AC01204B3
:100AAA0080E4C39BFBE49AFAE499F9E498F880039A
:100ABA0012048030D50DE4C39FFFE49EFEE49DFD41
:040ACA00E49CFC228A
:10096800020A46E493A3F8E493A34003F68001F255
:1009780008DFF48029E493A3F85407240CC8C33390
:10098800C4540F4420C8834004F456800146F6DF5F
:10099800E4800B0102040810204080900B9BE47E49
:1009A800019360BCA3FF543F30E509541FFEE49354
:1009B800A360010ECF54C025E060A840B8E493A31B
:1009C800FAE493A3F8E493A3C8C582C8CAC583CA46
:1009D800F0A3C8C582C8CAC583CADFE9DEE780BEFE
:010BA800004C
:1004440075F008758200EF2FFFEE33FECD33CDCC6F
:1004540033CCC58233C5829BED9AEC99E5829840F2
:100464000CF582EE9BFEED9AFDEC99FC0FD5F0D6CF
:10047400E4CEFBE4CDFAE4CCF9A88222B800C1B9F9
:100484000059BA002DEC8BF084CFCECDFCE5F0CB37
:10049400F97818EF2FFFEE33FEED33FDEC33FCEB70
:1004A40033FB10D703994004EB99FB0FD8E5E4F92B
:1004B400FA227818EF2FFFEE33FEED33FDEC33FC18
:1004C400C933C910D7059BE99A4007EC9BFCE99A0C
:1004D400F90FD8E0E4C9FAE4CCFB2275F010EF2F51
:1004E400FFEE33FEED33FDCC33CCC833C810D70751
:1004F4009BEC9AE899400AED9BFDEC9AFCE899F88C
:0E0504000FD5F0DAE4CDFBE4CCFAE4C8F9221E
:00000001FF
