:0B000E003F065B4F666D7D077F6F4073
:100AC800C101C1020249000001480AC10302210014
:060AD80000C180013F0196
:03002B00020003CD
:05000300B2A1C2CF32E2
:03001B0002097D5A
:10097D00C0E0C0F0C083C082C0D075D000C000C040
:10098D0001C002C003C004C005C006C007D3E54ABC
:10099D009400E54994004012E54A154A7002154944
:1009AD00758DFC758B18C28F800FC28EC28FC2AB36
:1009BD00C201C2030548120B26D007D006D005D0C0
:1009CD0004D003D002D001D000D0D0D082D083D0BB
:0409DD00F0D0E03244
:03000B00020A25C1
:100A2500C0E0C0D0758CD8758AF00522E522700229
:100A35000521D39419E5216480948040197521001E
:100A4500752200B200E53F94204005753F01800600
:0D0A5500E53F25E0F53FC28DD0D0D0E03266
:10085200AB07AA06EA3395E0F9F8E47F607EEAFD89
:10086200FC1209E18E2B8F2CE52C7802C333CE3398
:10087200CED8F9F5458E44E52C25E0F541E52B333C
:10088200F540E52BC313F537E52C13F538E52CAE0F
:100892002B7802CEC313CE13D8F9F53A8E39E52C54
:1008A200AE2B7803CEC313CE13D8F9F5328E31E5D1
:1008B2002BC4F854F0C868F52DE52CC4540F48F544
:1008C2002EAE44AF457C007D0612051F8E298F2A6D
:1008D200AE44AF457C007D0C12051F8E3D8F3EAEAF
:0F08E20044AF457C007D1812051F8E258F2622FE
:100B05008FCB8DCA8FCD8DCCC2CFD2CAD2ADD2AF4D
:010B150022BD
:090B2600C2CAC2CFD2A1C2022250
:100A8F008E0A8F0BD3E50B9400E50A9400400F7F7D
:0F0A9F006412001EE50B150B70EA150A80E622A3
:080A62007F22AD2CAC2B7EFEBF
:100A6A008C0A8D0BAB07AA06200219D202EB4A6048
:100A7A000AEAFF3395E0AD03120B05850A49850B97
:050A8A004A120AAE2231
:100B1600758901758CD8758AF0D28CD2A9D2AF228C
:100AAE00200116D201D20353890F438910758DFC94
:0A0ABE00758B18D28ED2ABD2AF2296
:1003DD007F8C7E00120852120A62AD38AC377F9ABC
:1003ED007EFE120A6AAD38AC377F857EFE120A6A30
:1003FD00AD38AC377F567EFE120A6AAD38AC377F0A
:10040D00227EFE120A6AAD2CAC2B7FC87EFD120A2D
:10041D006AAD38AC377FC87EFD120A6AAD38AC378D
:10042D007F227EFE120A6AAD38AC377F9A7EFE12AD
:10043D000A6AAD38AC377F857EFE120A6AAD38ACDC
:10044D00377F567EFE120A6AAD38AC377F6E7EFE60
:10045D00120A6A7F85120A64AD38AC377F857EFE3D
:10046D00120A6AAD38AC377F857EFE120A6AAD3846
:10047D00AC377F857EFE120A6AAD38AC377F227E9F
:10048D00FE120A6AAD38AC377F567EFE120A6AAD8F
:10049D0038AC377F227EFE120A6AAD38AC377F85C5
:1004AD007EFE120A6AAD38AC377F227EFE120A6AD2
:1004BD00AD38AC377F567EFE120A6AAD38AC377F49
:1004CD00227EFE120A6AAD38AC377FC87EFD120A55
:1004DD006AAD38AC377F227EFE120A6AAD38AC3772
:1004ED007F827EFD120A6AAD38AC377FE87EFD1241
:1004FD000A6AAD38AC377FC87EFD120A6AAD38ACDA
:10050D00377F347EFD120A6AAD45AC44E4FFFE022E
:02051D000A6A68
:10025A007FC87E00120852AD2CAC2B7FA67EFD1201
:10026A000A6AAD2CAC2B7F7A7EFC120A6AAD38ACD6
:10027A0037E4FFFE120A6AAD2CAC2B7F3D7EFE12DC
:10028A000A6AAD38AC377FE87EFD120A6AAD2CAC3B
:10029A002B7FA67EFD120A6AAD2CAC2B7F7A7EFCE0
:1002AA00120A6AAD38AC37E4FFFE120A6AAD2CAC0A
:1002BA002B7FA67EFD120A6AAD38AC377F5C7EFDC5
:1002CA00120A6AAD38AC377F347EFD120A6AAD383D
:1002DA00AC377F347EFD120A6AAD38AC377F5C7E5C
:1002EA00FD120A6AAD38AC377FA67EFD120A6AADE6
:1002FA002CAC2B7F7A7EFC120A6AAD2CAC2B7FDCED
:10030A007EFC120A6AAD41AC407F347EFD120A6A55
:10031A00AD41AC40E4FFFE120A6AAD2CAC2B7FA6BD
:10032A007EFD120A6AAD2CAC2B7F7A7EFC120A6A19
:10033A00AD38AC37E4FFFE120A6AAD2CAC2B7F3D18
:10034A007EFE120A6AAD38AC377FE87EFD120A6A71
:10035A00AD2CAC2B7FA67EFD120A6AAD2CAC2B7F8E
:10036A007A7EFC120A6AAD38AC37E4FFFE120A6ADA
:10037A00AD2CAC2B7FA67EFD120A6AAD38AC377F56
:10038A005C7EFD120A6AAD38AC377F347EFD120AF4
:10039A006AAD38AC377F347EFD120A6AAD38AC37A5
:1003AA007F5C7EFD120A6AAD38AC377FA67EFD12ED
:1003BA000A6AAD2CAC2B7F7A7EFC120A6AAD2CAC91
:1003CA002B7FDC7EFC120A6AAD41AC407F7A7EFC50
:0303DA00020A6AAA
:10002E007F327E00120852AD32AC31E4FFFE120A6E
:10003E006AAD32AC317F3D7EFE120A6AAD3AAC3902
:10004E007FAE7EFE120A6AAD32AC317FF47EFE12B6
:10005E000A6AAD3AAC397FAE7EFE120A6AAD32AC98
:10006E00317F3D7EFE120A6AAD3AAC397F227EFEAA
:10007E00120A6AAD38AC377FD37EFE120A6AAD32F1
:10008E00AC317FAE7EFE120A6AAD3AAC397F9A7EF3
:10009E00FE120A6AAD32AC317FD37EFE120A6AAD11
:1000AE003AAC397F9A7EFE120A6AAD32AC317F3D90
:1000BE007EFE120A6AAD3AAC397FE87EFD120A6AFC
:1000CE00AD38AC377FAE7EFE120A6AAD32AC317FF0
:1000DE003D7EFE120A6AAD3AAC397FAE7EFE120A42
:1000EE006AAD32AC317FF47EFE120A6AAD3AAC399B
:1000FE007FAE7EFE120A6AAD32AC317F3D7EFE12BD
:10010E000A6AAD3AAC397F227EFE120A6AAD38AC6D
:10011E00377FD37EFE120A6AAD32AC317FAE7EFEE1
:10012E00120A6AAD3AAC397F9A7EFE120A6AAD3275
:10013E00AC317F3D7EFE120A6AAD3AAC397F6E7EDF
:10014E00FE120A6AAD32AC317F9A7EFE120A6AAD99
:10015E002CAC2B7FAE7EFE120A6AAD32AC317F3DE7
:10016E007EFE120A6AAD32AC317F6E7EFE120A6AD4
:10017E00AD32AC317F9A7EFE120A6AAD2CAC2B7F6B
:10018E00AE7EFE120A6AAD32AC317F3D7EFE120AA1
:10019E006AAD32AC317F6E7EFE120A6AAD32AC3180
:1001AE007FC17EFE120A6AAD2CAC2B7FD37EFE126F
:1001BE000A6AAD32AC317F6E7EFE120A6AAD32AC87
:1001CE00317F9A7EFE120A6AAD32AC317FC17EFE5D
:1001DE00120A6AAD3AAC397FD37EFE120A6AAD3886
:1001EE00AC377FD37EFE120A6AAD32AC317F6E7EA3
:1001FE00FE120A6AAD32AC317F9A7EFE120A6AADE9
:10020E0032AC317FC17EFE120A6AAD3AAC397FD371
:10021E007EFE120A6AAD38AC377FD37EFE120A6AB2
:10022E00AD32AC317F3D7EFE120A6AAD32AC317F0B
:10023E006E7EFE120A6AAD32AC317F9A7EFE120AD3
:0C024E006AAD32AC317FAE7EFE020A6A5F
:100ADF007FA07E00120852AD38AC377FDC7EFC124F
:030AEF000A6A226E
:100642007FF07E00120852AD2CAC2B7F857EFE120D
:100652000A6AAD2CAC2B7F6E7EFE120A6AAD2CAC00
:100662002B7F857EFE120A6AAD2CAC2B7F6E7EFE3E
:10067200120A6AAD2CAC2B7F857EFE120A6AAD2C63
:10068200AC2B7F067EFE120A6AAD2CAC2B7F567E07
:10069200FE120A6A120A62AD41AC407FC87EFD12A8
:1006A2000A6AAD2CAC2B7F447EFC120A6AAD2CACDC
:1006B2002B7F857EFE120A6AAD2CAC2B7FE47EFE78
:1006C200120A6AAD41AC407F037EFF120A6AAD2C6A
:1006D200AC2B7F0A7EFD120A6AAD2CAC2B7FC87E42
:1006E200FD120A6AAD2CAC2B7F067EFE120A6AADA1
:0A06F20041AC407F227EFE020A6A3E
:1006FC007FF07E00120852AD2CAC2B7F7A7EFC1260
:10070C000A6AAD2CAC2B7FDC7EFC120A6AAD2CACD9
:10071C002B7F347EFD120A6AAD2CAC2B7F5C7EFDE8
:10072C00120A6AAD2CAC2B7FA67EFD120A6AAD2C88
:10073C00AC2B7FE87EFD120A6A120A62AD2CAC2B40
:10074C007F3D7EFE120A6AAD45AC44E4FFFE120A00
:10075C006AAD2CAC2B7F3D7EFE120A6A120A62AD8A
:10076C002CAC2B7FE87EFD120A6AAD2CAC2B7FA63D
:10077C007EFD120A6AAD2CAC2B7F5C7EFD120A6AE0
:10078C00AD2CAC2B7F347EFD120A6AAD2CAC2B7FCA
:10079C00DC7EFC120A6AAD2CAC2B7F7A7EFC020A42
:0107AC006AE2
:1007AD00E4F508F509120B1675803F7590FF20B51D
:1007BD002B7F0A7E00120A8F20B521AF080508EFA6
:1007CD0090000E93F580E508D394094003E4F508F5
:1007DD0075A0EFE4F5487FA0FE120852E548700AB7
:1007ED00AD38AC377FDC7EFC8039E548B4010AAD0D
:1007FD0038AC377F0A7EFD802AE548B40209AD4149
:10080D00AC40E4FFFE801CE548B4030AAD38AC37BC
:10081D007F5C7EFD800DE548B4040BAD38AC377FB1
:10082D00827EFD120A6A3000057509DF80037509A5
:10083D00BF3003055309F780035309FB8509A085D4
:05084D003F800207BB23
:0B001E000000000000000000DFF622E0
:100AF200758910758DD8758BF0D28E308FFDC28EB0
:030B0200C28F227D
:030000000208F102
:0C08F100787FE4F6D8FD75814E020938CE
:10051F00BC000BBE0029EF8DF084FFADF022E4CCC0
:10052F00F875F008EF2FFFEE33FEEC33FCEE9DEC89
:10053F00984005FCEE9DFE0FD5F0E9E4CEFD22EDCF
:10054F00F8F5F0EE8420D21CFEADF075F008EF2F19
:10055F00FFED33FD4007985006D5F0F222C398FD0A
:05056F000FD5F0EA22A7
:1009E100C2D5E830E70FB2D5E4C39BFBE49AFAE441
:1009F10099F9E498F8EC30E717B2D5120A17120505
:100A0100B0E4C39BFBE49AFAE499F9E498F8800313
:100A11001205B030D50DE4C39FFFE49EFEE49DFDB9
:040A2100E49CFC2233
:1008FD000207ADE493A3F8E493A34003F68001F25D
:10090D0008DFF48029E493A3F85407240CC8C333FB
:10091D00C4540F4420C8834004F456800146F6DFCA
:10092D00E4800B0102040810204080900AC8E47E88
:10093D00019360BCA3FF543F30E509541FFEE493BF
:10094D00A360010ECF54C025E060A840B8E493A386
:10095D00FAE493A3F8E493A3C8C582C8CAC583CAB1
:10096D00F0A3C8C582C8CAC583CADFE9DEE780BE69
:010ADE000017
:1005740075F008758200EF2FFFEE33FECD33CDCC3E
:1005840033CCC58233C5829BED9AEC99E5829840C1
:100594000CF582EE9BFEED9AFDEC99FC0FD5F0D69E
:1005A400E4CEFBE4CDFAE4CCF9A88222B800C1B9C8
:1005B4000059BA002DEC8BF084CFCECDFCE5F0CB06
:1005C400F97818EF2FFFEE33FEED33FDEC33FCEB3F
:1005D40033FB10D703994004EB99FB0FD8E5E4F9FA
:1005E400FA227818EF2FFFEE33FEED33FDEC33FCE7
:1005F400C933C910D7059BE99A4007EC9BFCE99ADB
:10060400F90FD8E0E4C9FAE4CCFB2275F010EF2F1F
:10061400FFEE33FEED33FDCC33CCC833C810D7071F
:100624009BEC9AE899400AED9BFDEC9AFCE899F85A
:0E0634000FD5F0DAE4CDFBE4CCFAE4C8F922ED
:00000001FF
