:0B000E003F065B4F666D7D077F6F4073
:100A7D00C100C101014501012300024A000002210C
:050A8D00000001400122
:03002B00020AC7FF
:050AC700B2A1C2CF3214
:03001B000209F3E4
:1009F300C0E0C0D0D3E54B9400E54A94004012E533
:100A03004B154B7002154A758DFC758B18C28F8080
:0E0A130008C28EC28FC2ABC200D0D0D0E0327B
:03000B0002096285
:10096200C0E0C0D0758CEA758A600522E52270026B
:100972000521D39419E521648094804029752100D2
:10098200752200E54594805008E54525E0F545804F
:1009920003754501E540C39420400575400180067A
:0D09A200E54025E0F540C28DD0D0D0E03218
:1007B900AB07AA06EA3395E0F9F8E47F607EEAFD23
:1007C900FC1209AF8E2C8F2DE52D7802C333CE3361
:1007D900CED8F9F5478E46E52D25E0F542E52C33CF
:1007E900F541E52CC313F538E52D13F539E52DAEA3
:1007F9002C7802CEC313CE13D8F9F53B8E3AE52DEA
:10080900AE2C7803CEC313CE13D8F9F5338E32E567
:100819002CC4F854F0C868F52EE52DC4540F48F5DA
:100829002FAE46AF477C007D061202EB8E2A8F2B36
:10083900AE46AF477C007D0C1202EB8E3E8F3FAE79
:0F08490046AF477C007D181202EB8E268F2722C8
:100AA6008FCB8DCA8FCD8DCCC2CFD2CAD2ADD2AFAD
:010AB600221D
:07000300C2CAC2CFD2A12244
:100A46008E0B8F0CD3E50C9400E50B9400400F7FC2
:0F0A56006412001EE50C150C70EA150B80E622E9
:080A21007F22AD39AC387EFEE6
:100A29008C098D0AAB07AA06EB4A6007EAFFAD03FA
:0D0A3900120AA6AF0AAE09120A4602000317
:100AB700758901758CEA758A60D28CD2A9D2AF226A
:100A6500200014D20053890F438910758DFC758BB6
:080A750018D28ED2ABD2AF22E1
:100524007F8C7E001207B9AD2DAC2C7F227EFE128B
:100534000A297F9A120A23AD39AC387F857EFE12D0
:100544000A29AD39AC387F567EFE120A29120A21D7
:10055400AD2DAC2C7FC87EFD120A29AD39AC387F95
:10056400C87EFD120A29120A21AD39AC387F9A7E61
:10057400FE120A29AD39AC387F857EFE120A29ADF8
:1005840039AC387F567EFE120A29AD39AC387F6EFD
:100594007EFE120A29AD2DAC2C7F857EFE120A291F
:1005A400AD39AC387F857EFE120A29AD39AC387F6F
:1005B400857EFE120A29AD39AC387F857EFE120A8B
:1005C40029120A21AD39AC387F567EFE120A29124F
:1005D4000A21AD39AC387F857EFE120A29120A2120
:1005E400AD39AC387F567EFE120A29120A21AD3984
:1005F400AC387FC87EFD120A29120A21AD39AC3805
:100604007F827EFD120A29AD39AC387FE87EFD1267
:100614000A29AD39AC387FC87EFD120A29AD39AC40
:10062400387F347EFD120A29AD47AC46E4FFFE0252
:020634000A2991
:10002E007FC87E001207B9AD2DAC2C7FA67EFD12C7
:10003E000A29AD2DAC2C7F7A7EFC120A29AD39AC83
:10004E0038E4FFFE120A29AD2DAC2C7F3D7EFE1248
:10005E000A29AD39AC387FE87EFD120A29AD2DACE8
:10006E002C7FA67EFD120A29AD2DAC2C7F7A7EFC4C
:10007E00120A29AD39AC38E4FFFE120A29AD2DACB7
:10008E002C7FA67EFD120A29AD39AC387F5C7EFD31
:10009E00120A29AD39AC387F347EFD120A29AD39EA
:1000AE00AC387F347EFD120A29AD39AC387F5C7EC8
:1000BE00FD120A29AD39AC387FA67EFD120A29AD94
:1000CE002DAC2C7F7A7EFC120A29AD2DAC2C7FDC58
:1000DE007EFC120A29AD42AC417F347EFD120A2904
:1000EE00AD42AC41E4FFFE120A29AD2DAC2C7FA629
:1000FE007EFD120A29AD2DAC2C7F7A7EFC120A29C8
:10010E00AD39AC38E4FFFE120A29AD2DAC2C7F3D83
:10011E007EFE120A29AD39AC387FE87EFD120A291F
:10012E00AD2DAC2C7FA67EFD120A29AD2DAC2C7FF9
:10013E007A7EFC120A29AD39AC38E4FFFE120A2988
:10014E00AD2DAC2C7FA67EFD120A29AD39AC387FC1
:10015E005C7EFD120A29AD39AC387F347EFD120A61
:10016E0029AD39AC387F347EFD120A29AD39AC3851
:10017E007F5C7EFD120A29AD39AC387FA67EFD125A
:10018E000A29AD2DAC2C7F7A7EFC120A29AD2DAC3E
:10019E002C7FDC7EFC120A29AD42AC417F7A7EFCBC
:0301AE00020A2919
:1001B1007F327E001207B9AD33AC32E4FFFE120A82
:1001C10029AD33AC327F3D7EFE120A29AD3BAC3AFC
:1001D1007FAE7EFE120A29AD33AC327FF47EFE1271
:1001E1000A29AD3BAC3A7FAE7EFE120A29AD33AC93
:1001F100327F3D7EFE120A29AD3BAC3A7F227EFE64
:10020100120A29AD39AC387FD37EFE120A29AD33EB
:10021100AC327FAE7EFE120A29AD3BAC3A7F9A7EAC
:10022100FE120A29AD33AC327FD37EFE120A29AD0C
:100231003BAC3A7F9A7EFE120A29AD33AC327F3D48
:100241007EFE120A29AD3BAC3A7FE87EFD120A29F7
:10025100AD39AC387FAE7EFE120A29AD33AC327FA8
:100261003D7EFE120A29AD3BAC3A7FAE7EFE120AFC
:1002710029AD33AC327FF47EFE120A29AD3BAC3A94
:100281007FAE7EFE120A29AD33AC327F3D7EFE1277
:100291000A29AD3BAC3A7F227EFE120A29AD39AC68
:1002A100387FD37EFE120A29AD33AC327FAE7EFE9B
:1002B100120A29AD3BAC3A7F9A7EFE120A29AD3370
:1002C100AC327F3D7EFE120A29AD3BAC3A7F6E7E99
:1002D100FE120A29AD33AC327F9A7EFE120A29AD95
:0A02E1002DAC2C7FAE7EFE020A2930
:10040E007FA07E001207B9AD39AC387FDC7EFC12BE
:10041E000A29AD39AC387F0A7EFD120A29AD42ACED
:10042E0041E4FFFE120A29AD39AC387F5C7EFD1225
:10043E000A29AD39AC387F827EFD120A29AD42AC55
:10044E0041E4FFFE120A29AD39AC387FDC7EFC1286
:10045E000A29AD39AC387F0A7EFD120A29AD3BACB4
:10046E003AE4FFFE120A29AD39AC387F5C7EFD12EC
:10047E000A29AD39AC387F827EFD120A29AD3BAC1C
:10048E003AE4FFFE120A29120A21AD39AC387F0672
:10049E007EFE120A29AD3BAC3AE4FFFE120A29ADEC
:1004AE0039AC387FDC7EFC120A29AD39AC387F0AB4
:1004BE007EFD120A29AD3BAC3AE4FFFE120A29ADCD
:1004CE0039AC387F067EFE120A29AD42AC417FE878
:1004DE007EFD120A29AD42AC41E4FFFE120A29AD9F
:1004EE003BAC3A7FC87EFD120A29AD3BAC3A7F8207
:1004FE007EFD120A29AD3BAC3A7F0A7EFD120A2917
:10050E00AD3BAC3A7FAD7EFC120A29AD42AC417FC9
:06051E000A7EFD020A291D
:100636007FF07E001207B9AD2DAC2C7F857EFE12B1
:100646000A29AD2DAC2C7F6E7EFE120A29AD2DAC8B
:100656002C7F857EFE120A29AD2DAC2C7F6E7EFE88
:10066600120A29AD2DAC2C7F857EFE120A29AD2DEE
:10067600AC2C7F067EFE120A29AD2DAC2C7F567E51
:10068600FE120A29AD2DAC2C7F227EFE120A29AD60
:1006960042AC417FC87EFD120A29AD2DAC2C7F44A9
:1006A6007EFC120A29AD2DAC2C7F857EFE120A290E
:1006B600AD2DAC2C7FE47EFE120A29AD42AC417F03
:1006C600037EFF120A29AD2DAC2C7F0A7EFD120A8D
:1006D60029AD2DAC2C7FC87EFD120A29AD2DAC2C80
:1006E6007F067EFE120A29AD42AC417F227EFE02C3
:0206F6000A29CF
:1006F8007FF07E001207B9AD2DAC2C7F7A7EFC12FC
:100708000A29AD2DAC2C7FDC7EFC120A29AD2DAC5C
:100718002C7F347EFD120A29AD2DAC2C7F5C7EFD2A
:10072800120A29AD2DAC2C7FA67EFD120A29AD2D0B
:10073800AC2C7FE87EFD120A29AD2DAC2C7F227EE1
:10074800FE120A29AD2DAC2C7F3D7EFE120A29AD82
:1007580047AC46E4FFFE120A29AD2DAC2C7F3D7E46
:10076800FE120A29AD2DAC2C7F227EFE120A29AD7D
:100778002DAC2C7FE87EFD120A29AD2DAC2C7FA66E
:100788007EFD120A29AD2DAC2C7F5C7EFD120A2954
:10079800AD2DAC2C7F347EFD120A29AD2DAC2C7FFB
:1007A800DC7EFC120A29AD2DAC2C7F7A7EFC020A75
:0107B8002917
:1008E400E4F508120AB775803F7590FF20B5657F5F
:1008F4000A7E00120A4620B55BAF080508EF900097
:100904000E93F580E508D394094003E4F50875A037
:10091400EFD201E5231460151460171460191460F4
:100924001B14601D2405701C1201B18017120524CC
:10093400801212002E800D12040E800812063680DA
:10094400031206F8C201E523D394054005E4F52318
:0E09540080020523E545F4F5A0854080808EE5
:0B001E000000000000000000DFF622E0
:100A9300758910758DD8758BF0D28E308FFDC28E0F
:030AA300C28F22DD
:030000000208589B
:0C085800787FE4F6D8FD75814F02089F00
:1002EB00BC000BBE0029EF8DF084FFADF022E4CCF7
:1002FB00F875F008EF2FFFEE33FEEC33FCEE9DECC0
:10030B00984005FCEE9DFE0FD5F0E9E4CEFD22ED05
:10031B00F8F5F0EE8420D21CFEADF075F008EF2F4F
:10032B00FFED33FD4007985006D5F0F222C398FD40
:05033B000FD5F0EA22DD
:1009AF00C2D5E830E70FB2D5E4C39BFBE49AFAE473
:1009BF0099F9E498F8EC30E717B2D51209E512036C
:1009CF007CE4C39BFBE49AFAE499F9E498F880037A
:1009DF0012037C30D50DE4C39FFFE49EFEE49DFD22
:0409EF00E49CFC2266
:100864000208E4E493A3F8E493A34003F68001F2BE
:1008740008DFF48029E493A3F85407240CC8C33395
:10088400C4540F4420C8834004F456800146F6DF64
:10089400E4800B0102040810204080900A7DE47E6D
:1008A400019360BCA3FF543F30E509541FFEE49359
:1008B400A360010ECF54C025E060A840B8E493A320
:1008C400FAE493A3F8E493A3C8C582C8CAC583CA4B
:1008D400F0A3C8C582C8CAC583CADFE9DEE780BE03
:010A92000063
:1003400075F008758200EF2FFFEE33FECD33CDCC74
:1003500033CCC58233C5829BED9AEC99E5829840F7
:100360000CF582EE9BFEED9AFDEC99FC0FD5F0D6D4
:10037000E4CEFBE4CDFAE4CCF9A88222B800C1B9FE
:100380000059BA002DEC8BF084CFCECDFCE5F0CB3C
:10039000F97818EF2FFFEE33FEED33FDEC33FCEB75
:1003A00033FB10D703994004EB99FB0FD8E5E4F930
:1003B000FA227818EF2FFFEE33FEED33FDEC33FC1D
:1003C000C933C910D7059BE99A4007EC9BFCE99A11
:1003D000F90FD8E0E4C9FAE4CCFB2275F010EF2F56
:1003E000FFEE33FEED33FDCC33CCC833C810D70756
:1003F0009BEC9AE899400AED9BFDEC9AFCE899F891
:0E0400000FD5F0DAE4CDFBE4CCFAE4C8F92223
:00000001FF
