:0200DD00C10060
:0C00D100758920758DFD759850D28E2227
:1000C0003098FD859908C298300003C20022D20002
:0100D000220D
:10008F00D2A21200D11200C0300004C2A08002D24E
:0C009F00A0C2A27FC47E091200AB80E466
:1000AB00D3EF9400EE9400400B7D6EDDFEEF1F70DE
:0400BB00EF1E80ECC8
:0100BF00221E
:03000000020003F8
:0C000300787FE4F6D8FD75812002004AE9
:10000F0002008FE493A3F8E493A34003F68001F278
:10001F0008DFF48029E493A3F85407240CC8C333F2
:10002F00C4540F4420C8834004F456800146F6DFC1
:10003F00E4800B01020408102040809000DDE47E74
:10004F00019360BCA3FF543F30E509541FFEE493B6
:10005F00A360010ECF54C025E060A840B8E493A37D
:10006F00FAE493A3F8E493A3C8C582C8CAC583CAA8
:10007F00F0A3C8C582C8CAC583CADFE9DEE780BE60
:0100DF000020
:00000001FF
