:10046A00010A01010800010B01010904010C000144
:02047A000D0073
:10044B008E0E8F0FD3E50F9400E50E9400400F7FB7
:0F045B0064120489E50F150F70EA150E80E62272
:0C047D00758920758DFD759850D28E2277
:070494003098FDAF99C298FA
:01049B00223E
:0303FB00C2000F2E
:1003FE00EF14B40700504590041375F003A4C583A1
:10040E0025F0C5837302042802042D02043202046F
:10041E003702043C020441020446A20092B122A219
:10042E000092B222A20092B322A20092B422A200A3
:0D043E0092B522A20092B622A20092B7222F
:10000300EFB40A00400302019B900013F828287301
:1000130002003102004F0200730200900200B4029A
:1000230000D80200FB02011E020147020170C20058
:100033007F011203FE1203FB1203FBC2000F120324
:10004300FEC2000F1203FEC20002013FD2007F0175
:100053001203FEC2000F1203FEC2000F1203FED2F0
:10006300000F1203FED2000F1203FED20002013F63
:10007300C2007F011203FEC2000F1203FED2000F63
:100083001203FEC2000F1203FEC200801BC2007FD8
:10009300011203FEC2000F1203FEC2000F1203FE81
:1000A300C2000F1203FED2000F1203FED2000201A0
:1000B30068D2007F011203FEC2000F1203FEC200CA
:1000C3000F1203FED2000F1203FED2000F1203FE23
:1000D300C200020168C2007F011203FED2000F12A8
:1000E30003FEC2000F1203FEC2000F1203FED20072
:1000F3000F1203FEC200806DC2007F011203FED205
:10010300000F1203FEC2000F1203FEC2000F120300
:10011300FEC2000F1203FEC200804AC2007F01121A
:1001230003FEC2000F1203FEC2000F1203FED20031
:100133000F1203FED2000F1203FED2000F1203FEB2
:10014300D2008050C2007F011203FEC2000F1203CF
:10015300FEC2000F1203FEC2000F1203FEC2000F05
:100163001203FEC2000F1203FEC2008027C2007FEB
:10017300011203FEC2000F1203FEC2000F1203FEA0
:10018300C2000F1203FED2000F1203FEC2000F12B1
:0901930003FEC2000F1203FE225C
:10038600EF14B40C00506D90039B75F003A4C58365
:1003960025F0C583730203BF0203C40203C9020327
:1003A600CE0203D30203D80203DD0203E20203E70F
:1003B6000203EC0203F10203F6A200928022A200DD
:1003C600928122A200928222A200928322A200920D
:1003D6008422A200928522A200928622A2009287FF
:1003E60022A20092A722A20092A622A20092A522F1
:0503F600A20092A42208
:10019C00750A01D200AF0A120386050AE50AD39448
:1001AC000C40F0D2A2D2A3E4F508750A01E50AD3FB
:1001BC0094014008E50A14FFD2008004D2007F0CA1
:1001CC00120386C200AF0A120386E50BD3940640D5
:1001DC0005750B018002050BE50BD394014008E576
:1001EC000B14FFD2008004D2007F061203FEC20063
:1001FC00AF0B1203FED2007F071203FE7F647E005A
:10020C0012044B050AE50AD3940C40A10508E50835
:10021C00C394034095750A01E50AD395095059E535
:10022C000A94014008E50A14FFD2008004D2007F32
:10023C000C120386C200AF0A120386E50BD3940698
:10024C004005750B018002050BE50BD394014008AA
:10025C00E50B14FFD2008004D2007F061203FEC20D
:10026C0000AF0B1203FED2007F071203FE7F787ED5
:10027C000012044B050A80A0E509C3940A500280C1
:10028C0014E50975F00A8475F00A8485F00CE50C08
:10029C00D394094003E4F50CE50975F00A8485F064
:1002AC000DE4F50AC2A3E50CD394004010D2A2AF22
:1002BC000C1200037F0A7E0012044B8002C2A2C201
:1002CC00A2D2A3AF0D1200037F0A7E0012044B05CD
:1002DC000AE50AC3946440CC7F107E2712044BC2FB
:0E02EC00A2C2A312047D1204948F0902019C89
:0B0489000000000000000000DFF62271
:030000000202FAFF
:0C02FA00787FE4F6D8FD758120020341F6
:1003060002019CE493A3F8E493A34003F68001F270
:1003160008DFF48029E493A3F85407240CC8C333F8
:10032600C4540F4420C8834004F456800146F6DFC7
:10033600E4800B010204081020408090046AE47EE9
:10034600019360BCA3FF543F30E509541FFEE493BC
:10035600A360010ECF54C025E060A840B8E493A383
:10036600FAE493A3F8E493A3C8C582C8CAC583CAAE
:10037600F0A3C8C582C8CAC583CADFE9DEE780BE66
:01047C00007F
:00000001FF
