:03002B00020A07BF
:050A0700B2A1C2CF32D4
:1008AB00AB07AA06EA3395E0F9F8E47F607EEAFD30
:1008BB00FC12094A8E108F11E5117802C333CE3327
:1008CB00CED8F9F5298E28E51125E0F525E510336D
:1008DB00F524E510C313F51CE51113F51DE511AE59
:1008EB00107802CEC313CE13D8F9F51F8E1EE51167
:1008FB00AE107803CEC313CE13D8F9F5178E16E5C9
:10090B0010C4F854F0C868F512E511C4540F48F53B
:10091B0013AE28AF297C007D061203DD8E0E8F0FE0
:10092B00AE28AF297C007D0C1203DD8E228F23AE07
:0F093B0028AF297C007D181203DD8E0A8F0B2256
:1009D6008FCB8DCA8FCD8DCCC2CFD2CAD2ADD2AF7E
:0109E60022EE
:0909FE00C2AFC2CAC2CFD2A122CD
:0409B3007FE87E0358
:1009B7008E328F33D3E5339400E5329400400F7FB6
:0F09C700641209F3E533153370EA153280E62226
:08098E007F22AD1DAC1C7EFEB2
:100996008C308D31AB07AA06EB4A6007EAFFAD0340
:0D09A6001209D6AF31AE301209B70209FEBA
:100616007F8C7E001208ABAD11AC107F227EFE12DD
:1006260009967F9A120990AD1DAC1C7F857EFE123D
:100636000996AD1DAC1C7F567EFE12099612098ED8
:10064600AD11AC107FC87EFD120996AD1DAC1C7FA6
:10065600C87EFD12099612098EAD1DAC1C7F9A7ECE
:10066600FE120996AD1DAC1C7F857EFE120996AD65
:100676001DAC1C7F567EFE120996AD1DAC1C7F6E0E
:100686007EFE120996AD11AC107F857EFE1209968C
:10069600AD1DAC1C7F857EFE120996AD1DAC1C7F80
:1006A600857EFE120996AD1DAC1C7F857EFE120965
:1006B6009612098EAD1DAC1C7F567EFE120996124F
:1006C600098EAD1DAC1C7F857EFE12099612098E21
:1006D600AD1DAC1C7F567EFE12099612098EAD1D0D
:1006E600AC1C7FC87EFD12099612098EAD1DAC1C8E
:1006F6007F827EFD120996AD1DAC1C7FE87EFD1241
:100706000996AD1DAC1C7FC87EFD120996AD1DACC9
:100716001C7F347EFD120996AD29AC28E4FFFE024B
:02072600099632
:10025A007FC87E001208ABAD11AC107FA67EFD12DE
:10026A000996AD11AC107F7A7EFC120996AD1DACD1
:10027A001CE4FFFE120996AD11AC107F3D7EFE1202
:10028A000996AD1DAC1C7FE87EFD120996AD11AC36
:10029A00107FA67EFD120996AD11AC107F7A7EFC06
:1002AA00120996AD1DAC1CE4FFFE120996AD11AC05
:1002BA00107FA67EFD120996AD1DAC1C7F5C7EFDEB
:1002CA00120996AD1DAC1C7F347EFD120996AD1D38
:1002DA00AC1C7F347EFD120996AD1DAC1C7F5C7E82
:1002EA00FD120996AD1DAC1C7FA67EFD120996ADC6
:1002FA0011AC107F7A7EFC120996AD11AC107FDC2E
:10030A007EFC120996AD25AC247F347EFD12099637
:10031A00AD25AC24E4FFFE120996AD11AC107FA600
:10032A007EFD120996AD11AC107F7A7EFC120996F9
:10033A00AD1DAC1CE4FFFE120996AD11AC107F3D59
:10034A007EFE120996AD1DAC1C7FE87EFD12099651
:10035A00AD11AC107FA67EFD120996AD11AC107FCF
:10036A007A7EFC120996AD1DAC1CE4FFFE120996BA
:10037A00AD11AC107FA67EFD120996AD1DAC1C7F97
:10038A005C7EFD120996AD1DAC1C7F347EFD120900
:10039A0096AD1DAC1C7F347EFD120996AD1DAC1CBA
:1003AA007F5C7EFD120996AD1DAC1C7FA67EFD12F8
:1003BA000996AD11AC107F7A7EFC120996AD11AC8C
:1003CA00107FDC7EFC120996AD25AC247F7A7EFC78
:0303DA000209967F
:10002E007F327E001208ABAD17AC16E4FFFE12094C
:10003E0096AD17AC167F3D7EFE120996AD1FAC1E17
:10004E007FAE7EFE120996AD17AC167FF47EFE12C1
:10005E000996AD1FAC1E7FAE7EFE120996AD17AC93
:10006E00167F3D7EFE120996AD1FAC1E7F227EFED0
:10007E00120996AD1DAC1C7FD37EFE120996AD17EC
:10008E00AC167FAE7EFE120996AD1FAC1E7F9A7E19
:10009E00FE120996AD17AC167FD37EFE120996ADF1
:1000AE001FAC1E7F9A7EFE120996AD17AC167F3DD1
:1000BE007EFE120996AD1FAC1E7FE87EFD120996DC
:1000CE00AD1DAC1C7FAE7EFE120996AD17AC167F31
:1000DE003D7EFE120996AD1FAC1E7FAE7EFE12094E
:1000EE0096AD17AC167FF47EFE120996AD1FAC1EB0
:1000FE007FAE7EFE120996AD17AC167F3D7EFE12C8
:10010E000996AD1FAC1E7F227EFE120996AD1DAC68
:10011E001C7FD37EFE120996AD17AC167FAE7EFE07
:10012E00120996AD1FAC1E7F9A7EFE120996AD1770
:10013E00AC167F3D7EFE120996AD1FAC1E7F6E7E05
:10014E00FE120996AD17AC167F9A7EFE120996AD79
:10015E0011AC107FAE7EFE120996AD17AC167F3D28
:10016E007EFE120996AD17AC167F6E7EFE120996B4
:10017E00AD17AC167F9A7EFE120996AD11AC107FAC
:10018E00AE7EFE120996AD17AC167F3D7EFE1209AD
:10019E0096AD17AC167F6E7EFE120996AD17AC1695
:1001AE007FC17EFE120996AD11AC107FD37EFE127A
:1001BE000996AD17AC167F6E7EFE120996AD17AC82
:1001CE00167F9A7EFE120996AD17AC167FC17EFE83
:1001DE00120996AD1FAC1E7FD37EFE120996AD1D81
:1001EE00AC1C7FD37EFE120996AD17AC167F6E7EC9
:1001FE00FE120996AD17AC167F9A7EFE120996ADC9
:10020E0017AC167FC17EFE120996AD1FAC1E7FD3B2
:10021E007EFE120996AD1DAC1C7FD37EFE12099692
:10022E00AD17AC167F3D7EFE120996AD17AC167F4C
:10023E006E7EFE120996AD17AC167F9A7EFE1209DF
:0C024E0096AD17AC167FAE7EFE0209963E
:100500007FA07E001208ABAD1DAC1C7FDC7EFC1210
:100510000996AD1DAC1C7F0A7EFD120996AD25AC77
:1005200024E4FFFE120996AD1DAC1C7F5C7EFD121B
:100530000996AD1DAC1C7F827EFD120996AD25ACDF
:1005400024E4FFFE120996AD1DAC1C7FDC7EFC127C
:100550000996AD1DAC1C7F0A7EFD120996AD1FAC3D
:100560001EE4FFFE120996AD1DAC1C7F5C7EFD12E1
:100570000996AD1DAC1C7F827EFD120996AD1FACA5
:100580001EE4FFFE12099612098EAD1DAC1C7F06FB
:100590007EFE120996AD1FAC1EE4FFFE120996AD59
:1005A0001DAC1C7FDC7EFC120996AD1DAC1C7F0AC5
:1005B0007EFD120996AD1FAC1EE4FFFE120996AD3A
:1005C0001DAC1C7F067EFE120996AD25AC247FE88B
:1005D0007EFD120996AD25AC24E4FFFE120996AD0E
:1005E0001FAC1E7FC87EFD120996AD1FAC1E7F8218
:1005F0007EFD120996AD1FAC1E7F0A7EFD12099684
:10060000AD1FAC1E7FAD7EFC120996AD25AC247FDC
:060610000A7EFD020996BE
:100728007FF07E001208ABAD11AC107F857EFE1203
:100738000996AD11AC107F6E7EFE120996AD11AC14
:10074800107F857EFE120996AD11AC107F6E7EFE7D
:10075800120996AD11AC107F857EFE120996AD1177
:10076800AC107F067EFE120996AD11AC107F567E46
:10077800FE120996AD11AC107F227EFE120996ADCD
:1007880025AC247FC87EFD120996AD11AC107F44BC
:100798007EFC120996AD11AC107F857EFE1209967B
:1007A800AD11AC107FE47EFE120996AD25AC247F16
:1007B800037EFF120996AD11AC107F0A7EFD120967
:1007C80096AD11AC107FC87EFD120996AD11AC1024
:1007D8007F067EFE120996AD25AC247F227EFE029E
:0207E800099670
:1007EA007FF07E001208ABAD11AC107F7A7EFC124E
:1007FA000996AD11AC107FDC7EFC120996AD11ACE6
:10080A00107F347EFD120996AD11AC107F5C7EFD1F
:10081A00120996AD11AC107FA67EFD120996AD1194
:10082A00AC107FE87EFD120996AD11AC107F227ED6
:10083A00FE120996AD11AC107F3D7EFE120996ADEF
:10084A0029AC28E4FFFE120996AD11AC107F3D7E5B
:10085A00FE120996AD11AC107F227EFE120996ADEA
:10086A0011AC107FE87EFD120996AD11AC107FA67F
:10087A007EFD120996AD11AC107F5C7EFD120996C1
:10088A00AD11AC107F347EFD120996AD11AC107F0C
:10089A00DC7EFC120996AD11AC107F7A7EFC02094F
:0108AA0096B7
:1000030012002E1209B31206161209B312025A1263
:1000130009B31205001209B31207281209B3120714
:06002300EA1209B380DAC5
:0B09F3000000000000000000DFF62202
:030000000209E70B
:0C09E700787FE4F6D8FD75813302000330
:1003DD00BC000BBE0029EF8DF084FFADF022E4CC04
:1003ED00F875F008EF2FFFEE33FEEC33FCEE9DECCD
:1003FD00984005FCEE9DFE0FD5F0E9E4CEFD22ED13
:10040D00F8F5F0EE8420D21CFEADF075F008EF2F5C
:10041D00FFED33FD4007985006D5F0F222C398FD4D
:05042D000FD5F0EA22EA
:10094A00C2D5E830E70FB2D5E4C39BFBE49AFAE4D8
:10095A0099F9E498F8EC30E717B2D5120980120435
:10096A006EE4C39BFBE49AFAE499F9E498F88003ED
:10097A0012046E30D50DE4C39FFFE49EFEE49DFD94
:04098A00E49CFC22CB
:1004320075F008758200EF2FFFEE33FECD33CDCC81
:1004420033CCC58233C5829BED9AEC99E582984004
:100452000CF582EE9BFEED9AFDEC99FC0FD5F0D6E1
:10046200E4CEFBE4CDFAE4CCF9A88222B800C1B90B
:100472000059BA002DEC8BF084CFCECDFCE5F0CB49
:10048200F97818EF2FFFEE33FEED33FDEC33FCEB82
:1004920033FB10D703994004EB99FB0FD8E5E4F93D
:1004A200FA227818EF2FFFEE33FEED33FDEC33FC2A
:1004B200C933C910D7059BE99A4007EC9BFCE99A1E
:1004C200F90FD8E0E4C9FAE4CCFB2275F010EF2F63
:1004D200FFEE33FEED33FDCC33CCC833C810D70763
:1004E2009BEC9AE899400AED9BFDEC9AFCE899F89E
:0E04F2000FD5F0DAE4CDFBE4CCFAE4C8F92231
:00000001FF
