:10049900010B01010800010C01010904010D000112
:0504A9000E00010A0C29
:10045D008E0F8F10D3E5109400E50F9400400F7FA1
:0F046D00641204DCE510151070EA150F80E6220A
:03000B0002047C70
:10047C00C0E0C0D0E50AD394014004150A8003758E
:0D048C000A0C758C4C758A00D0D0D0E0327F
:1004C000758901758C4CE4F58AD28CD2AFD2A92201
:0C04D000758920758DFD759850D28E2224
:070003003098FDAF99C2988F
:01000A0022D3
:03040D00C2000F1B
:10041000EF14B40700504590042575F003A4C5837C
:1004200025F0C5837302043A02043F020444020427
:100430004902044E020453020458A20092B122A2BF
:100440000092B222A20092B322A20092B422A20091
:0D04500092B522A20092B622A20092B7221D
:10000E00EFB40A0040030201A690001EF8282873E0
:10001E0002003C02005A02007E02009B0200BF0258
:10002E0000E302010602012902015202017BC20015
:10003E007F0112041012040D12040DC2000F1204DF
:10004E0010C2000F120410C20002014AD2007F013A
:10005E00120410C2000F120410C2000F120410D2AC
:10006E00000F120410D2000F120410D20002014A27
:10007E00C2007F01120410C2000F120410D2000F32
:10008E00120410C2000F120410C200801BC2007FA7
:10009E0001120410C2000F120410C2000F1204103D
:1000AE00C2000F120410D2000F120410D20002016F
:1000BE0073D2007F01120410C2000F120410C2008E
:1000CE000F120410D2000F120410D2000F120410DF
:1000DE00C200020173C2007F01120410D2000F127F
:1000EE000410C2000F120410C2000F120410D2002E
:1000FE000F120410C200806DC2007F01120410D2D4
:10010E00000F120410C2000F120410C2000F1204CE
:10011E0010C2000F120410C200804AC2007F0112EA
:10012E000410C2000F120410C2000F120410D200ED
:10013E000F120410D2000F120410D2000F1204106E
:10014E00D2008050C2007F01120410C2000F1204B0
:10015E0010C2000F120410C2000F120410C2000FC2
:10016E00120410C2000F120410C2008027C2007FBA
:10017E0001120410C2000F120410C2000F1204105C
:10018E00C2000F120410D2000F120410C2000F1280
:09019E000410C2000F120410222B
:10039800EF14B40C00506D9003AD75F003A4C58341
:1003A80025F0C583730203D10203D60203DB0203DF
:1003B800E00203E50203EA0203EF0203F40203F991
:1003C8000203FE020403020408A200928022A20093
:1003D800928122A200928222A200928322A20092FB
:1003E8008422A200928522A200928622A2009287ED
:1003F80022A20092A722A20092A622A20092A522DF
:05040800A20092A422F5
:1001A7001204C0D2A2D2A3E4F508750B01E50BD364
:1001B70094014008E50B14FFD2008004D2007F0CA5
:1001C700120398C200AF0B120398E50CD3940640B4
:1001D70005750C018002050CE50CD394014008E578
:1001E7000C14FFD2008004D2007F06120410C20054
:1001F700AF0C120410D2007F071204107F647E0038
:1002070012045D050BE50BD3940C40A10508E50826
:10021700C394034095750B01E50BD395095059E538
:100227000B94014008E50B14FFD2008004D2007F35
:100237000C120398C200AF0B120398E50CD3940677
:100247004005750C018002050CE50CD394014008AC
:10025700E50C14FFD2008004D2007F06120410C2FE
:1002670000AF0C120410D2007F071204107F787EB3
:100277000012045D050B80A0E509C3940A5005E44C
:10028700F50D8017E50975F00A8475F00A8485F085
:100297000DE50DD394094003750D01E50975F00AC5
:1002A7008485F00EE4F50BC2A3E50DD3940040104E
:1002B700D2A2AF0D12000E7F0A7E0012045D8002EB
:1002C700C2A2C2A2D2A3AF0E12000E7F0A7E0012F4
:1002D700045D050BE50BC3946440CC7F107E2712A9
:1002E700045DC2A2C2A3750B01D200AF0B12039823
:1002F700050BE50BD3940C40F01204D012000385D4
:050307000A090201AA31
:0B04DC000000000000000000DFF6221E
:1004AF00E5207003F4F52054B8A2D0E52033F520F1
:0104BF00221A
:0300000002030CEC
:0C030C00787FE4F6D8FD758120020353D1
:100318000201A7E493A3F8E493A34003F68001F253
:1003280008DFF48029E493A3F85407240CC8C333E6
:10033800C4540F4420C8834004F456800146F6DFB5
:10034800E4800B0102040810204080900499E47EA8
:10035800019360BCA3FF543F30E509541FFEE493AA
:10036800A360010ECF54C025E060A840B8E493A371
:10037800FAE493A3F8E493A3C8C582C8CAC583CA9C
:10038800F0A3C8C582C8CAC583CADFE9DEE780BE54
:0104AE00004D
:00000001FF
